:100000000C94FD010C9425020C9425020C942502FD
:100010000C9425020C9425020C9425020C942502C4
:100020000C9425020C9425020C9425020C942502B4
:100030000C9425020C9425020C9425020C942502A4
:100040000C9416060C9425020C94E4050C94BE0541
:100050000C9425020C9425020C9425020C94250284
:100060000C9460060C94250241434B20434D4420E0
:1000700053504920696E74657266616365204F4B09
:100080002E0041434B20434D442053504920696E7C
:1000900074657266616365204572726F722100FF3C
:1000A0000000002C00FF002E00DF00FF0001003CDC
:1000B00000320011000000090002000400A8001333
:1000C00000E500140048002C000C00330078003AD2
:1000D0000033003B00FB003E00000043001100160F
:1000E000001000390002003500880022000A0037A5
:1000F000004000230000003400A0000600020006BB
:100100000088000700C0000D00B7000E0001004C81
:100110000000004A008100210099002400400025D1
:10012000003800260082005C0000006300000046EA
:100130000022000C003A005D0055005E007D005F6B
:10014000007D006000550061007000620080007C4E
:1001500000050020008000280030006C0000006DC9
:100160000080006E000000700002007100940073B7
:1001700000C1003D003400120004005A0057004F37
:1001800000BB0050009C00FF000000E5007F00F96C
:1001900000C00041002400E00014007600FF00339E
:1001A00000A00042002000430018004C000000871F
:1001B00000D00088003F00D7000300D9001000D312
:1001C000008200C8000800C90080007C0000007D9B
:1001D0000000007C0003007D0048007D0048007C9A
:1001E0000008007D0020007D0010007D000E0090C2
:1001F00000000091000E0091001A00910031009162
:10020000005A00910069009100750091007E0091F4
:1002100000880091008F00910096009100A300914A
:1002200000AF009100C4009100D7009100E8009158
:1002300000200092000000930006009300E300936A
:10024000000300930003009300000093000200935A
:100250000000009300000093000000930000009352
:10026000000000930000009300000096000000973B
:10027000000800970019009700020097000C0097F3
:100280000024009700300097002800970026009770
:1002900000020097009800970080009700000097E8
:1002A000000000A4000000A8000000C5001100C666
:1002B000005100BF008000C7001000B6006600B803
:1002C00000A500B7006400B9007C00B300AF00B423
:1002D000009700B500FF00B000C500B1009400B267
:1002E000000F00C4005C00A6000000A7002000A7CB
:1002F00000D800A7001B00A7003100A7000000A73E
:10030000001800A7002000A700D800A7001900A728
:10031000003100A7000000A7001800A7002000A7D8
:1003200000D800A7001900A7003100A7000000A70F
:100330000018007F000000E5001F00E1007700DDED
:10034000007F00C2000E00FF000000E0000400C0BB
:1003500000C800C100960086003D00510090005288
:10036000002C005300000054000000550088005786
:10037000000000500092005A0050005B003C005CFE
:10038000000000D3000400E0000000FF00000005B2
:10039000000000DA000800D7000300E000000005BC
:1003A000000000FF00FF0000000008000201000044
:1003B000030407000000000000000000000000240B
:1003C0000027002A000102040810204080010204D6
:1003D0000810200102040810200000000025002859
:1003E000002B0004040404040404040202020202B8
:1003F00002030303030303008E0711241FBECFEF84
:10040000D8E0DEBFCDBF11E0A0E0B1E0E0E1F9E16E
:1004100002C005900D92AC33B107D9F722E0ACE3EE
:10042000B1E001C01D92A439B207E1F711E0CDEFB0
:10043000D1E004C02197FE010E947B0CCC3FD10784
:10044000C9F70E94FD070C94860C0C94000090E004
:10045000FC01EB53FC4F2491FC01ED51FC4F8491C6
:10046000882399F090E0880F991FFC01E554FC4F18
:10047000A591B491FC01E752FC4F859194918FB7FF
:10048000F894EC91E22BEC938FBF089590E0FC017F
:10049000E955FC4F2491FC01EB53FC4F3491FC01D6
:1004A000ED51FC4FE491EE23B1F1222339F12330D9
:1004B00091F038F42130A9F0223001F584B58F7D18
:1004C00012C0273091F02830A1F02430B9F4809187
:1004D00080008F7D03C0809180008F7780938000A3
:1004E0000DC084B58F7784BD09C08091B0008F772F
:1004F00003C08091B0008F7D8093B000F0E0EE0FDC
:10050000FF1FE752FC4FA591B4918FB7F894EC917F
:100510003E2B3C938FBF0895CF92DF92EF92FF92D4
:100520000F931F93CF93DF936C017A018B01C0E08F
:10053000D0E0CE15DF0589F0D8016D918D01D6018F
:10054000ED91FC910190F081E02DC6010995892B78
:1005500011F47E0102C02196ECCFC701DF91CF914B
:100560001F910F91FF90EF90DF90CF9008950F9320
:100570001F93CF93DF938C01C0E0D0E0F801EC0F24
:10058000FD1F6491662371F0E091DA01F091DB01C7
:100590000190F081E02D8AED91E00995892B11F011
:1005A0002196ECCF42E050E068E371E08AED91E003
:1005B0000E948C028C0F9D1FDF91CF911F910F9194
:1005C0000895FC01918D828D981761F0828DDF0175
:1005D000A80FB11D5D968C91928D9F5F9F73928F36
:1005E00090E008958FEF9FEF0895FC01918D828D2B
:1005F000981731F0828DE80FF11D858D90E00895F8
:100600008FEF9FEF0895FC01918D228D892F90E04F
:10061000805C9F4F821B91098F73992708958AED03
:1006200091E00E94030321E0892B09F420E0822F4E
:100630000895FC01848DDF01A80FB11DA35ABF4F9F
:100640002C91848D90E001968F739927848FA689D1
:10065000B7892C93A089B1898C9180648C93938DF8
:10066000848D981306C00288F389E02D80818F7DE8
:1006700080830895EF92FF920F931F93CF93DF93A0
:10068000EC0181E0888F9B8D8C8D981305C0E889E3
:10069000F989808185FD24C0F62E0B8D10E00F5F57
:1006A0001F4F0F731127E02E8C8DE8120CC00FB670
:1006B00007FCFACFE889F989808185FFF5CFCE0163
:1006C0000E941903F1CF8B8DFE01E80FF11DE35A53
:1006D000FF4FF0820B8FEA89FB898081806207C01F
:1006E000EE89FF896083E889F9898081806480834D
:1006F00081E090E0DF91CF911F910F91FF90EF90FB
:100700000895CF93DF93EC01888D8823C9F0EA899F
:10071000FB89808185FD05C0A889B9898C9186FDFA
:100720000FC00FB607FCF5CF808185FFF2CFA889F7
:10073000B9898C9185FFEDCFCE010E941903E7CFD7
:10074000DF91CF91089580E090E0892B29F00E94FD
:100750000F0381110C94000008953FB7F894809125
:10076000880190918901A0918A01B0918B0126B5F1
:10077000A89B05C02F3F19F00196A11DB11D3FBFD9
:10078000BA2FA92F982F8827820F911DA11DB11D67
:10079000BC01CD0142E0660F771F881F991F4A9563
:1007A000D1F708958F929F92AF92BF92CF92DF922E
:1007B000EF92FF926B017C010E94AD034B015C0143
:1007C000C114D104E104F104F1F00E94AD03DC0195
:1007D000CB0188199909AA09BB09883E9340A10554
:1007E000B10570F321E0C21AD108E108F10888EEE2
:1007F000880E83E0981EA11CB11CC114D104E10431
:10080000F10419F7DDCFFF90EF90DF90CF90BF900C
:10081000AF909F908F9008958EBD00000DB407FE9D
:10082000FDCF8EB50895CF93DF93EC01862FEA813B
:10083000FB8120819C819095922390830E940C04DF
:1008400080E00E940C04EA81FB8120819C81922B34
:100850009083DF91CF9108950F931F93CF93DF93F0
:100860001F92CDB7DEB78C01862FD8011296ED917D
:10087000FC911397208114969C91909592239083DC
:1008800049830E940C044981842F0E940C04D801E2
:100890001296ED91FC911397908114968C91892B6F
:1008A000808381E00F90DF91CF911F910F91089588
:1008B00080E00C940C0485ED8093BC008091BC001A
:1008C00084FDFCCF1092B501089540915E01262F62
:1008D00030E0240F311D21323105DCF42091B501C7
:1008E0002430C9F4FC0180E090E0861758F4309180
:1008F0005E012191DC01A45CBE4FA30FB11D2C93BE
:100900000196F3CF80915E01680F60935E0180E0F5
:10091000089581E0089582E00895089581E090E0CF
:1009200030918D0120918C01321710F480E090E01D
:10093000919581959109089580918D0190918C01F7
:10094000891730F48F5F80938D0180E090E00895E7
:100950008FEF9FEF089580918C0190E020918D01A1
:10096000821B91090895CF92DF92EF92FF920F932D
:100970001F93CF93DF937C01262F972F8A018091BD
:10098000D901882391F0C62FD72F6E01C40ED51E32
:10099000CC15DD0571F06991D701ED91FC910190C5
:1009A000F081E02DC7010995F3CF642F822F0E94BB
:1009B0006504C801DF91CF911F910F91FF90EF90D7
:1009C000DF90CF900895CF93DF931F92CDB7DEB71E
:1009D00069832091D9012223D1F02091D6012032C0
:1009E00040F021E030E0FC013383228380E090E09E
:1009F00015C08091D701E82FF0E0EA54FE4F9981AD
:100A000090838F5F8093D7018093D60105C061E00A
:100A1000CE0101960E94650481E090E00F90DF9185
:100A2000CF9108951F93CF93DF93162FC091880223
:100A3000D0E0D595C79591E09093D901C093D801A6
:100A40001092D7011092D601682F87E792E00E949A
:100A5000E304612F87E792E00E94E3049091D601BE
:100A6000913208F04BC08091B5018111FCCF22E09A
:100A70002093B50121E02093B4012FEF2093B3011F
:100A80001092B2019093B101A6EBB1E041E951E0BF
:100A9000FA012E2F241B291718F42D912193F9CF39
:100AA0001092900190919001CC0FDD1FC92BC09343
:100AB000900190918F01913061F410928F0190918B
:100AC00090019093BB009091BC0093FDF8CF95EC02
:100AD00001C095EE9093BC009091B5019230E1F386
:100AE0009091B3019F3F79F08091B301803241F042
:100AF0008091B301803331F084E005C081E003C010
:100B000082E001C083E01092D7011092D6011092CA
:100B1000D901811108C061E070E080E090E00E949E
:100B2000D20381E001C080E0DF91CF911F91089551
:100B30008AED91E00C943A038AED91E00E94030360
:100B4000892B39F08AED91E00E94E10221E0892BA6
:100B500009F020E0822F08958AED91E00E940303BE
:100B6000892B39F08AED91E00E94E10221E0892B86
:100B700009F420E0822F08950E94810C1F920F92A9
:100B80000FB60F9211242F933F934F935F936F9360
:100B90007F938F939F93AF93BF93EF93FF938AEDD0
:100BA00091E00E941903FF91EF91BF91AF919F9146
:100BB0008F917F916F915F914F913F912F910F9006
:100BC0000FBE0F901F9018951F920F920FB60F92A5
:100BD00011242F938F939F93EF93FF93E091EA015A
:100BE000F091EB018081E091F001F091F10182FD43
:100BF00012C090818091F3018F5F8F732091F40177
:100C0000821751F0E091F301F0E0E652FE4F958F2C
:100C10008093F30101C08081FF91EF919F918F91AB
:100C20002F910F900FBE0F901F9018951F920F924B
:100C30000FB60F9211242F933F938F939F93AF93EF
:100C4000BF938091840190918501A0918601B0911C
:100C500087013091830123E0230F2D3720F4019683
:100C6000A11DB11D05C026E8230F0296A11DB11DCF
:100C7000209383018093840190938501A093860142
:100C8000B09387018091880190918901A0918A0198
:100C9000B0918B010196A11DB11D809388019093A5
:100CA0008901A0938A01B0938B01BF91AF919F916D
:100CB0008F913F912F910F900FBE0F901F9018951D
:100CC0001F920F920FB60F9211242F933F934F93C1
:100CD0005F936F937F938F939F93AF93BF93EF93A4
:100CE000FF938091B900887F803609F49CC068F535
:100CF000883209F45BC090F4803109F454C038F4B0
:100D0000882309F4F6C0883009F44DC0F6C0883154
:100D100009F44CC0803209F45DC0EFC0803409F49E
:100D200068C048F4803309F455C0883309F0E5C041
:100D30008093B301D8C0803509F44FC0883509F4D9
:100D40005DC0883409F0D9C0D6C0883909F4C7C05D
:100D5000A8F4883709F467C038F4883609F463C00A
:100D6000803709F460C0C9C0883809F4B8C0803938
:100D700009F45FC0803809F0C0C05BC0803B09F453
:100D800086C038F4803A09F466C0883A09F47FC016
:100D9000B4C0803C09F4A7C0883C09F4A4C0883BD7
:100DA00009F48AC0AAC08091900110C09091B2014C
:100DB0008091B101981770F5E091B20181E08E0F3A
:100DC0008093B201F0E0EF56FE4F80818093BB002C
:100DD00085EC86C08093B3018EC0E091B20181E0C2
:100DE0008E0F8093B2018091BB00F0E0EF56FE4F72
:100DF00080839091B2018091B1016EC0E091B20107
:100E000081E08E0F8093B2018091BB00F0E0EF563D
:100E1000FE4F80838091B40181116DC081E0809389
:100E20008F0184EA61C083E08093B5011092820152
:100E3000CFCF80918201803208F051C0E0918201D1
:100E400081E08E0F809382018091BB00F0E0EE592B
:100E5000FE4F8083BDCF85EC8093BC001092B5011E
:100E600080918201803230F4E0918201F0E0EE590D
:100E7000FE4F10826091820170E0E0916001F0917C
:100E8000610182E691E009951092820136C084E00A
:100E90008093B50110925F0110925E01E0915C01B8
:100EA000F0915D01099580915E01811105C081E09D
:100EB00080935E0110923C01E0915F0181E08E0F12
:100EC00080935F01F0E0E45CFE4F80818093BB0083
:100ED00090915F0180915E01981708F479CF85E8C1
:100EE0008093BC000AC085EC8093BC001092B501D1
:100EF00004C01092B3010E945B04FF91EF91BF9177
:100F0000AF919F918F917F916F915F914F913F91A1
:100F10002F910F900FBE0F901F901895CF93DF93D6
:100F2000EAEDF1E01382128288EE93E0A0E0B0E0F7
:100F300084839583A683B78320E131E031832083C6
:100F400025EC30E03587248724EC30E0378726878E
:100F500020EC30E0318B208B21EC30E0338B228B86
:100F600022EC30E0358B248B26EC30E0378B268B5F
:100F7000118E128E138E148EE7E7F2E01382128226
:100F800084839583A683B78380E291E091838083F5
:100F9000C3E8D2E080E391E099838883EAEEF3E04E
:100FA000E491F0E0EE0FFF1FE752FC4F8591949122
:100FB0009B838A83ECECF3E0E491EC8387E00E946E
:100FC0002702EA81FB8190818C81892B808380E6D6
:100FD0008D838FEF9FEFA5E0B0E08E839F83A8877E
:100FE000B98780E091E0988B8F8786E391E09983C1
:100FF00088831C86DF91CF910895789484B58260B0
:1010000084BD84B5816084BD85B5826085BD85B5AC
:10101000816085BD80916E00816080936E0010922A
:1010200081008091810082608093810080918100A5
:101030008160809381008091800081608093800036
:101040008091B10084608093B1008091B000816094
:101050008093B00080917A00846080937A008091C0
:101060007A00826080937A0080917A008160809318
:101070007A0080917A00806880937A001092C10093
:1010800010928D0110928C011092D7011092D6010E
:101090001092B50181E08093B40110928F0182E13A
:1010A0000E94460283E10E9446028091B9008E7F31
:1010B0008093B9008091B9008D7F8093B90088E456
:1010C0008093B80085E48093BC00CFB7F8948091FA
:1010D0008E01811123C0EDEEF3E08491EFECF3E09B
:1010E0009491E82FF0E0EE0FFF1FE554FC4FA5911F
:1010F000B491EC91E92319F48AE00E9446028AE057
:101100000E9427028CB580618CBD8CB580648CBD3B
:101110008DE00E9427028BE00E94270280918E01C1
:101120008F5F80938E01CFBFE091EA01F091EB01D8
:1011300082E08083E091E601F091E7011082E09186
:10114000E801F091E90191E090831092F201E091C1
:10115000EE01F091EF0186E08083E091EC01F091E7
:10116000ED01808180618083E091EC01F091ED01DF
:10117000808188608083E091EC01F091ED018081B5
:1011800080688083E091EC01F091ED0180818F7D9A
:10119000808390938D0210928E0245E550E060E8C6
:1011A00070E083E892E00E942C0460E070E083E845
:1011B00092E00E941304853559F082E890E00E9485
:1011C000B70268EE73E080E090E00E94D203E5CFC2
:1011D00088E690E00E94B70261E070E08FEF90E057
:1011E0000E94120560E870E082E190E00E94120522
:1011F000109290021092910264E670E080E090E01C
:101200000E94D203CFE9D0E0C12CD12CE12CF12CEB
:101210008FEFC816D10469F0FE01E590F490FE014D
:101220003296C590D490B601C7010E94120524964B
:10123000EFCFAFEFEA16F10479F711E037E3232E91
:10124000312C8091920290919302DC01ED91FC91FE
:101250000190F081E02D0995882321F010939002F0
:101260001093910280919002882309F482C18091A9
:10127000920290919302DC01ED91FC910280F38146
:10128000E02D0995882329F0109291021092900286
:1012900070C1809191028823D1F041E050E064E870
:1012A00070E083E892E00E942C0441E050E064E8A2
:1012B00070E083E892E00E942C0442E050E064E891
:1012C00070E083E892E00E942C041092910261E4A5
:1012D00070E083E892E00E94130483FF4AC162E455
:1012E00070E083E892E00E941304C82E63E470E08B
:1012F00083E892E00E941304C82F64E470E083E85E
:1013000092E00E941304D12CE12CF12CDC2A8F777F
:10131000E82A8091890290918A02A0918B02B09173
:101320008C02C816D906EA06FB0628F4C114D104BB
:10133000E104F10459F441E050E064E870E083E82E
:1013400092E00E942C041093910213C1E091850257
:10135000F091860290818091870280958923808315
:101360008CE30E940C0480918F02882309F445C00D
:1013700000E0DFEFB1E0CB1AD108E108F108A9F1F4
:1013800080E00E940C04C82F002369F08091920233
:1013900090919302DC01ED91FC910480F581E02DA8
:1013A0006C2F09951EC0883DE1F4DF3F09F580915F
:1013B000920290919302DC01ED91FC910480F58101
:1013C000E02D6FEF09958091920290919302DC01DC
:1013D000ED91FC910480F581E02D68ED099501E027
:1013E00007C0C93D29F4DF3F19F410939102B0C042
:1013F000C1010197F1F7DC2FBDCFE0918302F0919D
:1014000084020190F081E02D83E892E00995C12CDF
:10141000D12CE12CF12C80E00E940C04C82F80E03C
:101420000E940C04482F20918D0230E0C601B901C2
:101430000E94530C892B09F07AC0C701B9010E94A0
:10144000530C892B09F073C080918E02A0909202F8
:10145000B0909302882309F451C0D0E0DC2FCC2750
:10146000C40FD11DF50180809180BE01672F7727C1
:1014700066956695669580E090E00E94580B2DE396
:101480003AE047E55EE30E94E60B2B013C01BE011A
:10149000607E777025E0769567952A95E1F780E084
:1014A00090E00E94580B2CEE31E548E35FE30E9488
:1014B000E60B9B01AC01C301B2010E94BD0A2B01E6
:1014C0003C01CF71DD27BE0180E090E00E94580B07
:1014D00029E23CE54FE85DE30E94E60B9B01AC018D
:1014E000C301B2010E94BD0A0E94290B660FD401FC
:1014F0001496ED91FC911597C50114C0D501ED919D
:10150000FC910480F581E02D642FC501099580913F
:10151000920290919302DC01ED91FC910480F5819F
:10152000E02D6C2F09958BE290E00197F1F7BFEF6A
:10153000EB1AFB0AE0E4EE16E1E0FE0609F06BCFE1
:10154000FFEFCF1ADF0A80EFC816D10409F061CF90
:10155000E0918502F0918602908180918702892B2B
:10156000808341E050E064E870E083E892E00E940C
:101570002C040E94A30365CE5058BB27AA270E94C3
:10158000D40A0C94AC0B0E949E0B38F00E94A50B61
:1015900020F039F49F3F19F426F40C949B0B0EF4C1
:1015A000E095E7FB0C94950BE92F0E94BD0B58F3D7
:1015B000BA17620773078407950720F079F4A6F538
:1015C0000C94DF0B0EF4E0950B2EBA2FA02D0B011F
:1015D000B90190010C01CA01A0011124FF27591B78
:1015E00099F0593F50F4503E68F11A16F040A22F7E
:1015F000232F342F4427585FF3CF469537952795EF
:10160000A795F0405395C9F77EF41F16BA0B620BED
:10161000730B840BBAF09150A1F0FF0FBB1F661F34
:10162000771F881FC2F70EC0BA0F621F731F841F77
:1016300048F4879577956795B795F7959E3F08F09D
:10164000B0CF9395880F08F09927EE0F979587955F
:1016500008950E94C50B88F09F5798F0B92F9927DD
:10166000B751B0F0E1F0660F771F881F991F1AF08D
:10167000BA95C9F714C0B13091F00E94DF0BB1E008
:1016800008950C94DF0B672F782F8827B85F39F007
:10169000B93FCCF3869577956795B395D9F73EF426
:1016A00090958095709561957F4F8F4F9F4F0895CE
:1016B000E89409C097FB3EF49095809570956195EC
:1016C0007F4F8F4F9F4F9923A9F0F92F96E9BB27A2
:1016D0009395F695879577956795B795F111F8CF1E
:1016E000FAF4BB0F11F460FF1BC06F5F7F4F8F4F89
:1016F0009F4F16C0882311F096E911C0772321F07F
:101700009EE8872F762F05C0662371F096E8862F16
:1017100070E060E02AF09A95660F771F881FDAF76D
:10172000880F9695879597F9089597F99F6780E8B0
:1017300070E060E008959FEF80EC089500240A9423
:101740001616170618060906089500240A9412169C
:101750001306140605060895092E0394000C11F4CF
:10176000882352F0BB0F40F4BF2B11F460FF04C07C
:101770006F5F7F4F8F4F9F4F089557FD9058440FD5
:10178000551F59F05F3F71F04795880F97FB991FE0
:1017900061F09F3F79F0879508951216130614069D
:1017A000551FF2CF4695F1DF08C01616170618062A
:1017B000991FF1CF86957105610508940895E89405
:1017C000BB2766277727CB0197F908950E94F90B6D
:1017D0000C94AC0B0E949E0B38F00E94A50B20F0DD
:1017E000952311F00C94950B0C949B0B11240C94E5
:1017F000E00B0E94BD0B70F3959FC1F3950F50E075
:10180000551F629FF001729FBB27F00DB11D639FB2
:10181000AA27F00DB11DAA1F649F6627B00DA11D58
:10182000661F829F2227B00DA11D621F739FB00DFE
:10183000A11D621F839FA00D611D221F749F33276E
:10184000A00D611D231F849F600D211D822F762F07
:101850006A2F11249F5750409AF0F1F088234AF0E4
:10186000EE0FFF1FBB1F661F771F881F9150504050
:10187000A9F79E3F510580F00C94950B0C94E00B5A
:101880005F3FE4F3983ED4F3869577956795B795D7
:10189000F795E7959F5FC1F7FE2B880F911D9695F1
:1018A000879597F9089597FB072E16F4009407D0B3
:1018B00077FD09D00E94670C07FC05D03EF4909597
:1018C00081959F4F0895709561957F4F0895AA1B4C
:1018D000BB1B51E107C0AA1FBB1FA617B70710F01B
:1018E000A61BB70B881F991F5A95A9F7809590954D
:1018F000BC01CD010895EE0FFF1F0590F491E02D7E
:10190000099481E090E0F8940C94860CF894FFCF51
:10191000060100000000AC059C05980500000000D1
:101920003A038C020303E102F50281030000000088
:10193000E304B304AB049C048E048D040000000097
:0C194000BC050000000058040D0A000067
:00000001FF
